{
  "address": "0x36c8c8f009AE73ea4d854f3E5FFcE887c89d8EB9",
  "abi": [
    {
      "anonymous": false,
      "inputs": [
        {
          "indexed": false,
          "internalType": "address",
          "name": "asset",
          "type": "address"
        },
        {
          "indexed": false,
          "internalType": "uint256",
          "name": "newPrice",
          "type": "uint256"
        }
      ],
      "name": "PriceUpdated",
      "type": "event"
    },
    {
      "inputs": [],
      "name": "getPriceInUSD",
      "outputs": [
        {
          "internalType": "uint256",
          "name": "price",
          "type": "uint256"
        }
      ],
      "stateMutability": "pure",
      "type": "function"
    },
    {
      "inputs": [],
      "name": "viewPriceInUSD",
      "outputs": [
        {
          "internalType": "uint256",
          "name": "price",
          "type": "uint256"
        }
      ],
      "stateMutability": "pure",
      "type": "function"
    }
  ],
  "transactionHash": "0x3e8a79c56517a67dcc8e1cc1c40a18333c49278a87611093477db14aae6bf0f6",
  "args": [],
  "solcInputHash": "a12bb80eac07b84fe94bf540366fb887",
  "bytecode": "0x6080604052348015600f57600080fd5b5060858061001e6000396000f3fe6080604052348015600f57600080fd5b506004361060325760003560e01c8063e1aa6036146037578063f55fa17f146037575b600080fd5b6402540be40060405190815260200160405180910390f3fea2646970667358221220343492526badf8d65d7d24d70909c782794be7305d5dafc5195edd848234815f64736f6c63430008040033",
  "devdoc": {
    "kind": "dev",
    "methods": {},
    "version": 1
  },
  "userdoc": {
    "events": {
      "PriceUpdated(address,uint256)": {
        "notice": "Price update event"
      }
    },
    "kind": "user",
    "methods": {},
    "version": 1
  },
  "storageLayout": {
    "storage": [],
    "types": null
  }
}