{
  "address": "0xDf5e48316b601830BbBc8742A2A8DA2A627AcdA7",
  "abi": [
    {
      "inputs": [
        {
          "internalType": "address",
          "name": "_dpx",
          "type": "address"
        },
        {
          "internalType": "address",
          "name": "_rdpx",
          "type": "address"
        },
        {
          "internalType": "address",
          "name": "_stakingRewards",
          "type": "address"
        },
        {
          "internalType": "address",
          "name": "_optionPricing",
          "type": "address"
        },
        {
          "internalType": "address",
          "name": "_priceOracleAggregator",
          "type": "address"
        }
      ],
      "stateMutability": "nonpayable",
      "type": "constructor"
    },
    {
      "anonymous": false,
      "inputs": [
        {
          "indexed": false,
          "internalType": "uint256",
          "name": "epoch",
          "type": "uint256"
        }
      ],
      "name": "LogBootstrap",
      "type": "event"
    },
    {
      "anonymous": false,
      "inputs": [
        {
          "indexed": false,
          "internalType": "uint256",
          "name": "epoch",
          "type": "uint256"
        },
        {
          "indexed": false,
          "internalType": "uint256",
          "name": "rewards",
          "type": "uint256"
        },
        {
          "indexed": false,
          "internalType": "uint256",
          "name": "oldBalance",
          "type": "uint256"
        },
        {
          "indexed": false,
          "internalType": "uint256",
          "name": "newBalance",
          "type": "uint256"
        }
      ],
      "name": "LogCompound",
      "type": "event"
    },
    {
      "anonymous": false,
      "inputs": [
        {
          "indexed": false,
          "internalType": "uint256",
          "name": "epoch",
          "type": "uint256"
        },
        {
          "indexed": false,
          "internalType": "uint256",
          "name": "strike",
          "type": "uint256"
        },
        {
          "indexed": false,
          "internalType": "address",
          "name": "user",
          "type": "address"
        }
      ],
      "name": "LogNewDeposit",
      "type": "event"
    },
    {
      "anonymous": false,
      "inputs": [
        {
          "indexed": false,
          "internalType": "uint256",
          "name": "epoch",
          "type": "uint256"
        },
        {
          "indexed": false,
          "internalType": "uint256",
          "name": "strike",
          "type": "uint256"
        },
        {
          "indexed": false,
          "internalType": "address",
          "name": "user",
          "type": "address"
        },
        {
          "indexed": false,
          "internalType": "uint256",
          "name": "amount",
          "type": "uint256"
        },
        {
          "indexed": false,
          "internalType": "uint256",
          "name": "pnl",
          "type": "uint256"
        }
      ],
      "name": "LogNewExercise",
      "type": "event"
    },
    {
      "anonymous": false,
      "inputs": [
        {
          "indexed": false,
          "internalType": "uint256",
          "name": "epoch",
          "type": "uint256"
        },
        {
          "indexed": false,
          "internalType": "uint256",
          "name": "strike",
          "type": "uint256"
        },
        {
          "indexed": false,
          "internalType": "address",
          "name": "user",
          "type": "address"
        },
        {
          "indexed": false,
          "internalType": "uint256",
          "name": "amount",
          "type": "uint256"
        },
        {
          "indexed": false,
          "internalType": "uint256",
          "name": "premium",
          "type": "uint256"
        }
      ],
      "name": "LogNewPurchase",
      "type": "event"
    },
    {
      "anonymous": false,
      "inputs": [
        {
          "indexed": false,
          "internalType": "uint256",
          "name": "epoch",
          "type": "uint256"
        },
        {
          "indexed": false,
          "internalType": "uint256",
          "name": "strike",
          "type": "uint256"
        }
      ],
      "name": "LogNewStrike",
      "type": "event"
    },
    {
      "anonymous": false,
      "inputs": [
        {
          "indexed": false,
          "internalType": "uint256",
          "name": "epoch",
          "type": "uint256"
        },
        {
          "indexed": false,
          "internalType": "uint256",
          "name": "strike",
          "type": "uint256"
        },
        {
          "indexed": false,
          "internalType": "address",
          "name": "user",
          "type": "address"
        },
        {
          "indexed": false,
          "internalType": "uint256",
          "name": "amount",
          "type": "uint256"
        }
      ],
      "name": "LogNewWithdrawForStrike",
      "type": "event"
    },
    {
      "anonymous": false,
      "inputs": [
        {
          "indexed": true,
          "internalType": "address",
          "name": "previousOwner",
          "type": "address"
        },
        {
          "indexed": true,
          "internalType": "address",
          "name": "newOwner",
          "type": "address"
        }
      ],
      "name": "OwnershipTransferred",
      "type": "event"
    },
    {
      "inputs": [],
      "name": "bootstrap",
      "outputs": [
        {
          "internalType": "bool",
          "name": "",
          "type": "bool"
        }
      ],
      "stateMutability": "nonpayable",
      "type": "function"
    },
    {
      "inputs": [],
      "name": "compound",
      "outputs": [
        {
          "internalType": "bool",
          "name": "",
          "type": "bool"
        }
      ],
      "stateMutability": "nonpayable",
      "type": "function"
    },
    {
      "inputs": [],
      "name": "currentEpoch",
      "outputs": [
        {
          "internalType": "uint256",
          "name": "",
          "type": "uint256"
        }
      ],
      "stateMutability": "view",
      "type": "function"
    },
    {
      "inputs": [
        {
          "internalType": "uint256",
          "name": "strikeIndex",
          "type": "uint256"
        },
        {
          "internalType": "uint256",
          "name": "amount",
          "type": "uint256"
        }
      ],
      "name": "deposit",
      "outputs": [
        {
          "internalType": "bool",
          "name": "",
          "type": "bool"
        }
      ],
      "stateMutability": "nonpayable",
      "type": "function"
    },
    {
      "inputs": [
        {
          "internalType": "uint256[]",
          "name": "strikeIndices",
          "type": "uint256[]"
        },
        {
          "internalType": "uint256[]",
          "name": "amounts",
          "type": "uint256[]"
        }
      ],
      "name": "depositMultiple",
      "outputs": [
        {
          "internalType": "bool",
          "name": "",
          "type": "bool"
        }
      ],
      "stateMutability": "nonpayable",
      "type": "function"
    },
    {
      "inputs": [],
      "name": "dpx",
      "outputs": [
        {
          "internalType": "contract IERC20",
          "name": "",
          "type": "address"
        }
      ],
      "stateMutability": "view",
      "type": "function"
    },
    {
      "inputs": [
        {
          "internalType": "uint256",
          "name": "",
          "type": "uint256"
        }
      ],
      "name": "epochStartTimes",
      "outputs": [
        {
          "internalType": "uint256",
          "name": "",
          "type": "uint256"
        }
      ],
      "stateMutability": "view",
      "type": "function"
    },
    {
      "inputs": [
        {
          "internalType": "uint256",
          "name": "",
          "type": "uint256"
        },
        {
          "internalType": "uint256",
          "name": "",
          "type": "uint256"
        }
      ],
      "name": "epochStrikeTokens",
      "outputs": [
        {
          "internalType": "address",
          "name": "",
          "type": "address"
        }
      ],
      "stateMutability": "view",
      "type": "function"
    },
    {
      "inputs": [
        {
          "internalType": "uint256",
          "name": "",
          "type": "uint256"
        },
        {
          "internalType": "uint256",
          "name": "",
          "type": "uint256"
        }
      ],
      "name": "epochStrikes",
      "outputs": [
        {
          "internalType": "uint256",
          "name": "",
          "type": "uint256"
        }
      ],
      "stateMutability": "view",
      "type": "function"
    },
    {
      "inputs": [
        {
          "internalType": "uint256",
          "name": "exerciseEpoch",
          "type": "uint256"
        },
        {
          "internalType": "uint256",
          "name": "strikeIndex",
          "type": "uint256"
        },
        {
          "internalType": "uint256",
          "name": "amount",
          "type": "uint256"
        },
        {
          "internalType": "address",
          "name": "user",
          "type": "address"
        }
      ],
      "name": "exercise",
      "outputs": [
        {
          "internalType": "bool",
          "name": "",
          "type": "bool"
        }
      ],
      "stateMutability": "nonpayable",
      "type": "function"
    },
    {
      "inputs": [],
      "name": "expireEpoch",
      "outputs": [
        {
          "internalType": "bool",
          "name": "",
          "type": "bool"
        }
      ],
      "stateMutability": "nonpayable",
      "type": "function"
    },
    {
      "inputs": [
        {
          "internalType": "uint256",
          "name": "epoch",
          "type": "uint256"
        }
      ],
      "name": "getEpochTimes",
      "outputs": [
        {
          "internalType": "uint256",
          "name": "start",
          "type": "uint256"
        },
        {
          "internalType": "uint256",
          "name": "end",
          "type": "uint256"
        }
      ],
      "stateMutability": "view",
      "type": "function"
    },
    {
      "inputs": [
        {
          "internalType": "uint256",
          "name": "timestamp",
          "type": "uint256"
        }
      ],
      "name": "getMonthlyExpiryFromTimestamp",
      "outputs": [
        {
          "internalType": "uint256",
          "name": "",
          "type": "uint256"
        }
      ],
      "stateMutability": "pure",
      "type": "function"
    },
    {
      "inputs": [
        {
          "internalType": "address",
          "name": "_token",
          "type": "address"
        }
      ],
      "name": "getUsdPrice",
      "outputs": [
        {
          "internalType": "uint256",
          "name": "",
          "type": "uint256"
        }
      ],
      "stateMutability": "nonpayable",
      "type": "function"
    },
    {
      "inputs": [
        {
          "internalType": "uint256",
          "name": "",
          "type": "uint256"
        }
      ],
      "name": "isEpochExpired",
      "outputs": [
        {
          "internalType": "bool",
          "name": "",
          "type": "bool"
        }
      ],
      "stateMutability": "view",
      "type": "function"
    },
    {
      "inputs": [
        {
          "internalType": "uint256",
          "name": "",
          "type": "uint256"
        }
      ],
      "name": "isVaultReady",
      "outputs": [
        {
          "internalType": "bool",
          "name": "",
          "type": "bool"
        }
      ],
      "stateMutability": "view",
      "type": "function"
    },
    {
      "inputs": [],
      "name": "optionPricing",
      "outputs": [
        {
          "internalType": "contract IOptionPricing",
          "name": "",
          "type": "address"
        }
      ],
      "stateMutability": "view",
      "type": "function"
    },
    {
      "inputs": [],
      "name": "owner",
      "outputs": [
        {
          "internalType": "address",
          "name": "",
          "type": "address"
        }
      ],
      "stateMutability": "view",
      "type": "function"
    },
    {
      "inputs": [],
      "name": "priceOracleAggregator",
      "outputs": [
        {
          "internalType": "contract IPriceOracleAggregator",
          "name": "",
          "type": "address"
        }
      ],
      "stateMutability": "view",
      "type": "function"
    },
    {
      "inputs": [
        {
          "internalType": "uint256",
          "name": "strikeIndex",
          "type": "uint256"
        },
        {
          "internalType": "uint256",
          "name": "amount",
          "type": "uint256"
        }
      ],
      "name": "purchase",
      "outputs": [
        {
          "internalType": "bool",
          "name": "",
          "type": "bool"
        }
      ],
      "stateMutability": "nonpayable",
      "type": "function"
    },
    {
      "inputs": [],
      "name": "rdpx",
      "outputs": [
        {
          "internalType": "contract IERC20",
          "name": "",
          "type": "address"
        }
      ],
      "stateMutability": "view",
      "type": "function"
    },
    {
      "inputs": [],
      "name": "renounceOwnership",
      "outputs": [],
      "stateMutability": "nonpayable",
      "type": "function"
    },
    {
      "inputs": [
        {
          "internalType": "uint256[]",
          "name": "strikes",
          "type": "uint256[]"
        }
      ],
      "name": "setStrikes",
      "outputs": [
        {
          "internalType": "bool",
          "name": "",
          "type": "bool"
        }
      ],
      "stateMutability": "nonpayable",
      "type": "function"
    },
    {
      "inputs": [],
      "name": "stakingRewards",
      "outputs": [
        {
          "internalType": "contract IStakingRewards",
          "name": "",
          "type": "address"
        }
      ],
      "stateMutability": "view",
      "type": "function"
    },
    {
      "inputs": [
        {
          "internalType": "uint256",
          "name": "",
          "type": "uint256"
        },
        {
          "internalType": "uint256",
          "name": "",
          "type": "uint256"
        }
      ],
      "name": "totalEpochCallsPurchased",
      "outputs": [
        {
          "internalType": "uint256",
          "name": "",
          "type": "uint256"
        }
      ],
      "stateMutability": "view",
      "type": "function"
    },
    {
      "inputs": [
        {
          "internalType": "uint256",
          "name": "",
          "type": "uint256"
        }
      ],
      "name": "totalEpochDeposits",
      "outputs": [
        {
          "internalType": "uint256",
          "name": "",
          "type": "uint256"
        }
      ],
      "stateMutability": "view",
      "type": "function"
    },
    {
      "inputs": [
        {
          "internalType": "uint256",
          "name": "",
          "type": "uint256"
        }
      ],
      "name": "totalEpochDpxBalance",
      "outputs": [
        {
          "internalType": "uint256",
          "name": "",
          "type": "uint256"
        }
      ],
      "stateMutability": "view",
      "type": "function"
    },
    {
      "inputs": [
        {
          "internalType": "uint256",
          "name": "",
          "type": "uint256"
        },
        {
          "internalType": "uint256",
          "name": "",
          "type": "uint256"
        }
      ],
      "name": "totalEpochPremium",
      "outputs": [
        {
          "internalType": "uint256",
          "name": "",
          "type": "uint256"
        }
      ],
      "stateMutability": "view",
      "type": "function"
    },
    {
      "inputs": [
        {
          "internalType": "uint256",
          "name": "",
          "type": "uint256"
        }
      ],
      "name": "totalEpochRdpxBalance",
      "outputs": [
        {
          "internalType": "uint256",
          "name": "",
          "type": "uint256"
        }
      ],
      "stateMutability": "view",
      "type": "function"
    },
    {
      "inputs": [
        {
          "internalType": "uint256",
          "name": "",
          "type": "uint256"
        },
        {
          "internalType": "uint256",
          "name": "",
          "type": "uint256"
        }
      ],
      "name": "totalEpochStrikeDeposits",
      "outputs": [
        {
          "internalType": "uint256",
          "name": "",
          "type": "uint256"
        }
      ],
      "stateMutability": "view",
      "type": "function"
    },
    {
      "inputs": [
        {
          "internalType": "uint256",
          "name": "",
          "type": "uint256"
        }
      ],
      "name": "totalTokenVaultExercises",
      "outputs": [
        {
          "internalType": "uint256",
          "name": "",
          "type": "uint256"
        }
      ],
      "stateMutability": "view",
      "type": "function"
    },
    {
      "inputs": [
        {
          "internalType": "address",
          "name": "newOwner",
          "type": "address"
        }
      ],
      "name": "transferOwnership",
      "outputs": [],
      "stateMutability": "nonpayable",
      "type": "function"
    },
    {
      "inputs": [
        {
          "internalType": "uint256",
          "name": "",
          "type": "uint256"
        },
        {
          "internalType": "bytes32",
          "name": "",
          "type": "bytes32"
        }
      ],
      "name": "userEpochCallsPurchased",
      "outputs": [
        {
          "internalType": "uint256",
          "name": "",
          "type": "uint256"
        }
      ],
      "stateMutability": "view",
      "type": "function"
    },
    {
      "inputs": [
        {
          "internalType": "uint256",
          "name": "",
          "type": "uint256"
        },
        {
          "internalType": "bytes32",
          "name": "",
          "type": "bytes32"
        }
      ],
      "name": "userEpochDeposits",
      "outputs": [
        {
          "internalType": "uint256",
          "name": "",
          "type": "uint256"
        }
      ],
      "stateMutability": "view",
      "type": "function"
    },
    {
      "inputs": [
        {
          "internalType": "uint256",
          "name": "",
          "type": "uint256"
        },
        {
          "internalType": "bytes32",
          "name": "",
          "type": "bytes32"
        }
      ],
      "name": "userEpochPremium",
      "outputs": [
        {
          "internalType": "uint256",
          "name": "",
          "type": "uint256"
        }
      ],
      "stateMutability": "view",
      "type": "function"
    },
    {
      "inputs": [
        {
          "internalType": "address",
          "name": "_token",
          "type": "address"
        }
      ],
      "name": "viewUsdPrice",
      "outputs": [
        {
          "internalType": "uint256",
          "name": "",
          "type": "uint256"
        }
      ],
      "stateMutability": "view",
      "type": "function"
    },
    {
      "inputs": [
        {
          "internalType": "uint256",
          "name": "withdrawEpoch",
          "type": "uint256"
        },
        {
          "internalType": "uint256",
          "name": "strikeIndex",
          "type": "uint256"
        }
      ],
      "name": "withdrawForStrike",
      "outputs": [
        {
          "internalType": "bool",
          "name": "",
          "type": "bool"
        }
      ],
      "stateMutability": "nonpayable",
      "type": "function"
    }
  ],
  "transactionHash": "0xca8987cf4c667e07aaf186213b68b95cb228f0023deafb55ee7e53c2d7db4ca0",
  "args": [
    "0x6901a84FB66bE04E18c1b9181605FE4A7A027B01",
    "0x9DDF1DC98A0690033EE03848Db9df49D6C52CA41",
    "0x64Ceb676E09Be774D99Dd37329Ed0395e1c42c89",
    "0x97d6dC71EE8Ee16adD0E908CFDEE14aFDa958ba5",
    "0x26950c422eB2CbEd8BEC69A4e8B0f543e23334d8"
  ],
  "solcInputHash": "a12bb80eac07b84fe94bf540366fb887",
  "bytecode": "0x60806040523480156200001157600080fd5b50604051620055af380380620055af8339810160408190526200003491620002cb565b6200003f336200025e565b6001600160a01b0385166200009b5760405162461bcd60e51b815260206004820152601360248201527f496e76616c69642064707820616464726573730000000000000000000000000060448201526064015b60405180910390fd5b6001600160a01b038416620000f35760405162461bcd60e51b815260206004820152601460248201527f496e76616c696420726470782061646472657373000000000000000000000000604482015260640162000092565b6001600160a01b0383166200014b5760405162461bcd60e51b815260206004820152601f60248201527f496e76616c6964207374616b696e672072657761726473206164647265737300604482015260640162000092565b6001600160a01b038216620001a35760405162461bcd60e51b815260206004820152601e60248201527f496e76616c6964206f7074696f6e2070726963696e6720616464726573730000604482015260640162000092565b6001600160a01b038116620001fb5760405162461bcd60e51b815260206004820152601f60248201527f496e76616c6964207072696365206f7261636c652061676772656761746f7200604482015260640162000092565b600180546001600160a01b03199081166001600160a01b039788161790915560028054821695871695909517909455600380548516938616939093179092556004805484169185169190911790556015805490921692169190911790556200033a565b600080546001600160a01b038381166001600160a01b0319831681178455604051919092169283917f8be0079c531659141344cd1fd0a4f28419497f9722a3daafe3b4186f6b6457e09190a35050565b80516001600160a01b0381168114620002c657600080fd5b919050565b600080600080600060a08688031215620002e3578081fd5b620002ee86620002ae565b9450620002fe60208701620002ae565b93506200030e60408701620002ae565b92506200031e60608701620002ae565b91506200032e60808701620002ae565b90509295509295909350565b615265806200034a6000396000f3fe60806040523480156200001157600080fd5b5060043610620002555760003560e01c80638e143ccb1162000149578063d6ad207211620000c7578063f2fde38b1162000086578063f2fde38b146200065b578063f69e20461462000672578063f816a671146200067c578063f966923b1462000693578063fb969b0a14620006a757600080fd5b8063d6ad207214620005d0578063d7e1513114620005e7578063e2bbb158146200060a578063f09771111462000621578063f2a488cf146200063857600080fd5b8063b0f48cf71162000114578063b0f48cf71462000518578063b12daf691462000546578063bf434b7a1462000574578063cb8d1e4714620005a2578063d3e3e35214620005b957600080fd5b80638e143ccb146200049557806393c82c7514620004ac5780639ef9c25514620004d2578063a6fe2b9e14620004f557600080fd5b80636db29f6d11620001d757806371b90b4a11620001a257806371b90b4a14620004115780637667180814620004345780637e36701f146200043e5780638990d04514620004555780638da5cb5b146200048357600080fd5b80636db29f6d14620003b75780636f56f56f14620003c157806370876c9814620003ee578063715018a6146200040557600080fd5b80633f83b8a511620002245780633f83b8a5146200030457806343365f8c146200032a578063470f4224146200033e5780635ba0bee1146200037557806364b87a7014620003a357600080fd5b806310bc629c146200025a5780631e3394fb14620002865780631f9902f514620002b35780632807b9a814620002c7575b600080fd5b620002716200026b36600462002f92565b620006b1565b60405190151581526020015b60405180910390f35b6004546200029a906001600160a01b031681565b6040516001600160a01b0390911681526020016200027d565b6002546200029a906001600160a01b031681565b620002f5620002d836600462002f92565b601160209081526000928352604080842090915290825290205481565b6040519081526020016200027d565b620002716200031536600462002f60565b60086020526000908152604090205460ff1681565b6001546200029a906001600160a01b031681565b6200029a6200034f36600462002f92565b600a6020908152600092835260408084209091529082529020546001600160a01b031681565b620002f56200038636600462002f92565b601360209081526000928352604080842090915290825290205481565b6003546200029a906001600160a01b031681565b620002716200097f565b620003d8620003d236600462002f60565b62000aa1565b604080519283526020830191909152016200027d565b62000271620003ff36600462002f92565b62000b24565b6200040f62000fe1565b005b620002f56200042236600462002f60565b60146020526000908152604090205481565b620002f560055481565b620002f56200044f36600462002f92565b6200101c565b620002f56200046636600462002f92565b600d60209081526000928352604080842090915290825290205481565b6000546001600160a01b03166200029a565b620002f5620004a636600462002f60565b6200104e565b62000271620004bd36600462002f60565b60076020526000908152604090205460ff1681565b620002f5620004e336600462002f60565b600f6020526000908152604090205481565b620002f56200050636600462002f60565b60066020526000908152604090205481565b620002f56200052936600462002f92565b601260209081526000928352604080842090915290825290205481565b620002f56200055736600462002f92565b600b60209081526000928352604080842090915290825290205481565b620002f56200058536600462002f92565b601060209081526000928352604080842090915290825290205481565b620002f5620005b336600462002e82565b620011be565b62000271620005ca36600462002e9f565b62001242565b62000271620005e136600462002ed6565b62001352565b620002f5620005f836600462002f60565b600c6020526000908152604090205481565b620002716200061b36600462002f92565b62001430565b620002f56200063236600462002e82565b6200176b565b620002f56200064936600462002f60565b600e6020526000908152604090205481565b6200040f6200066c36600462002e82565b620017c7565b6200027162001869565b620002716200068d36600462002fb4565b62001ae2565b6015546200029a906001600160a01b031681565b6200027162001eff565b60006005548310620007155760405162461bcd60e51b815260206004820152602260248201527f57697468647261772065706f6368206d75737420626520696e207468652070616044820152611cdd60f21b60648201526084015b60405180910390fd5b6000838152600960205260409020548210620007455760405162461bcd60e51b81526004016200070c9062003105565b60008381526009602052604081208054849081106200077457634e487b7160e01b600052603260045260246000fd5b906000526020600020015490508060001415620007a55760405162461bcd60e51b81526004016200070c9062003168565b60003382604051602001620007bc92919062003023565b60408051601f1981840301815291815281516020928301206000888152600d845282812082825290935291205490915080620008585760405162461bcd60e51b815260206004820152603460248201527f5573657220737472696b65206465706f73697420616d6f756e74206d7573742060448201527362652067726561746572207468616e207a65726f60601b60648201526084016200070c565b6000868152600d602090815260408083208584528252808320839055888352600b8252808320868452909152812080548392906200089890849062003333565b909155505060015460405163a9059cbb60e01b8152336004820152602481018390526001600160a01b039091169063a9059cbb90604401602060405180830381600087803b158015620008ea57600080fd5b505af1158015620008ff573d6000803e3d6000fd5b505050506040513d601f19601f8201168201806040525081019062000925919062002f3e565b5060408051878152602081018590523391810191909152606081018290527f964039214216ebd63efa574760059e0d9a4c6eae672b8caa6ebda73af2de8623906080015b60405180910390a1600193505050505b92915050565b600080546001600160a01b03163314620009ad5760405162461bcd60e51b81526004016200070c9062003133565b60055460009081526007602052604090205460ff161562000a085760405162461bcd60e51b8152602060048201526014602482015273115c1bd8da081cd95d08185cc8195e1c1a5c995960621b60448201526064016200070c565b600062000a1760055462000aa1565b91505080421162000a7d5760405162461bcd60e51b815260206004820152602960248201527f43616e6e6f74206578706972652065706f6368206265666f72652065706f636860448201526827732065787069727960b81b60648201526084016200070c565b50506005546000908152600760205260409020805460ff1916600190811790915590565b6000806000831162000b015760405162461bcd60e51b815260206004820152602260248201527f45706f636820706173736564206d75737420626520686967686572207468616e604482015261020360f41b60648201526084016200070c565b60008381526006602052604090205462000b1b816200104e565b91509150915091565b60006005546000141562000b3b5750600062000979565b600554600090815260096020526040902054831062000b6e5760405162461bcd60e51b81526004016200070c9062003105565b6000821162000b915760405162461bcd60e51b81526004016200070c90620030dd565b600554600090815260096020526040812080548590811062000bc357634e487b7160e01b600052603260045260246000fd5b90600052602060002001549050806000141562000bf45760405162461bcd60e51b81526004016200070c9062003168565b6000338260405160200162000c0b92919062003023565b60408051601f1981840301815291815281516020928301206005546000818152600d85528381208382528552838120549181526011855283812083825290945291909220549192509062000c61908690620031d7565b111562000cc15760405162461bcd60e51b815260206004820152602760248201527f55736572206469646e2774206465706f73697420656e6f75676820666f7220706044820152667572636861736560c81b60648201526084016200070c565b6005546000908152600a602090815260408083208584529091529081902054905163a9059cbb60e01b8152336004820152602481018690526001600160a01b039091169063a9059cbb90604401602060405180830381600087803b15801562000d2957600080fd5b505af115801562000d3e573d6000803e3d6000fd5b505050506040513d601f19601f8201168201806040525081019062000d64919062002f3e565b5060015460009062000e369062000d84906001600160a01b0316620011be565b60045462000e2f9088906001600160a01b0316632ea2da86600062000da9426200104e565b6040516001600160e01b031960e085901b16815291151560048301526024820152604481018a905260640160206040518083038186803b15801562000ded57600080fd5b505afa15801562000e02573d6000803e3d6000fd5b505050506040513d601f19601f8201168201806040525081019062000e28919062002f79565b906200250c565b906200251a565b6001546040516323b872dd60e01b8152336004820152306024820152604481018390529192506001600160a01b0316906323b872dd90606401602060405180830381600087803b15801562000e8a57600080fd5b505af115801562000e9f573d6000803e3d6000fd5b505050506040513d601f19601f8201168201806040525081019062000ec5919062002f3e565b5060055460009081526010602090815260408083208684529091528120805487929062000ef4908490620031d7565b909155505060055460009081526011602090815260408083208584529091528120805487929062000f27908490620031d7565b909155505060055460009081526012602090815260408083208684529091528120805483929062000f5a908490620031d7565b909155505060055460009081526013602090815260408083208584529091528120805483929062000f8d908490620031d7565b90915550506005546040805191825260208201859052339082015260608101869052608081018290527f91df69db0c1f919252de8e9ced9afb2ee7549d147a9c51f021e9ee2377e4f1fb9060a00162000969565b6000546001600160a01b031633146200100e5760405162461bcd60e51b81526004016200070c9062003133565b6200101a600062002528565b565b600960205281600052604060002081815481106200103957600080fd5b90600052602060002001600091509150505481565b60008062001080620010608462002578565b6200106b856200259c565b62001078906001620031d7565b6000620025b9565b905060056200108f82620025e0565b1015620010d257620010cf620010a58262002578565b620010b0836200259c565b6007620010bd856200261c565b620010c9919062003333565b620025b9565b90505b600062001128620010e38362002578565b620010ee846200259c565b620010f985620025e0565b62001104866200261c565b62001111906005620031d7565b6200111d919062003333565b600c60008062002631565b9050838111620011b75760006200115b620011438662002578565b6200114e876200259c565b62001078906002620031d7565b905060056200116a82620025e0565b1015620011835762001180620010a58262002578565b90505b620011b3620011928262002578565b6200119d836200259c565b620011a884620025e0565b62001104856200261c565b9150505b9392505050565b601554604051630226614760e01b81526001600160a01b0383811660048301526000921690630226614790602401602060405180830381600087803b1580156200120757600080fd5b505af11580156200121c573d6000803e3d6000fd5b505050506040513d601f19601f8201168201806040525081019062000979919062002f79565b600080546001600160a01b03163314620012705760405162461bcd60e51b81526004016200070c9062003133565b60006005546001620012839190620031d7565b60008181526009602090815260409091208551929350620012a992909186019062002d4d565b5060008181526006602052604081204290555b835181101562001346577f2815fe71a8123f9bd0e2eaa1e61fc6c244707e2ad75340fa071283de5f08f032828583815181106200130957634e487b7160e01b600052603260045260246000fd5b602002602001015160405162001329929190918252602082015260400190565b60405180910390a1806200133d8162003380565b915050620012bc565b5060019150505b919050565b60008151835114620013a75760405162461bcd60e51b815260206004820152601d60248201527f496e76616c696420737472696b65496e64696365732f616d6f756e747300000060448201526064016200070c565b60005b8351811015620014265762001410848281518110620013d957634e487b7160e01b600052603260045260246000fd5b60200260200101518483815181106200140257634e487b7160e01b600052603260045260246000fd5b602002602001015162001430565b50806200141d8162003380565b915050620013aa565b5060019392505050565b6000806005546001620014449190620031d7565b6000818152600960205260409020549091508410620014775760405162461bcd60e51b81526004016200070c9062003105565b600083116200149a5760405162461bcd60e51b81526004016200070c90620030dd565b6000818152600960205260408120805486908110620014c957634e487b7160e01b600052603260045260246000fd5b906000526020600020015490508060001415620014fa5760405162461bcd60e51b81526004016200070c9062003168565b600033826040516020016200151192919062003023565b60408051808303601f190181529082905280516020909101206001546323b872dd60e01b8352336004840152306024840152604483018890529092506001600160a01b0316906323b872dd90606401602060405180830381600087803b1580156200157b57600080fd5b505af115801562001590573d6000803e3d6000fd5b505050506040513d601f19601f82011682018060405250810190620015b6919062002f3e565b506000838152600d6020908152604080832084845290915281208054879290620015e2908490620031d7565b90915550506000838152600b602090815260408083208584529091528120805487929062001612908490620031d7565b90915550506000838152600c60205260408120805487929062001637908490620031d7565b909155505060015460035460405163095ea7b360e01b81526001600160a01b0391821660048201526024810188905291169063095ea7b390604401602060405180830381600087803b1580156200168d57600080fd5b505af1158015620016a2573d6000803e3d6000fd5b505050506040513d601f19601f82011682018060405250810190620016c8919062002f3e565b5060035460405163534a7e1d60e11b8152600481018790526001600160a01b039091169063a694fc3a90602401600060405180830381600087803b1580156200171057600080fd5b505af115801562001725573d6000803e3d6000fd5b5050604080518681526020810186905233918101919091527f69a3d39cbba81c2ebd7a5e35a14c851461f3446cf06d57380f89b7a244bb5bf29250606001905062000969565b60155460405163eb9d14a960e01b81526001600160a01b038381166004830152600092169063eb9d14a99060240160206040518083038186803b158015620017b257600080fd5b505afa1580156200121c573d6000803e3d6000fd5b6000546001600160a01b03163314620017f45760405162461bcd60e51b81526004016200070c9062003133565b6001600160a01b0381166200185b5760405162461bcd60e51b815260206004820152602660248201527f4f776e61626c653a206e6577206f776e657220697320746865207a65726f206160448201526564647265737360d01b60648201526084016200070c565b620018668162002528565b50565b6000600554600014156200187d5750600090565b6003546040516370a0823160e01b81523060048201526000916001600160a01b0316906370a0823190602401602060405180830381600087803b158015620018c457600080fd5b505af1158015620018d9573d6000803e3d6000fd5b505050506040513d601f19601f82011682018060405250810190620018ff919062002f79565b60035460405163c11e1e4b60e01b81523060048201529192506000916001600160a01b039091169063c11e1e4b90602401602060405180830381600087803b1580156200194b57600080fd5b505af115801562001960573d6000803e3d6000fd5b505050506040513d601f19601f8201168201806040525081019062001986919062002f79565b9050600360009054906101000a90046001600160a01b03166001600160a01b031663f69e20466040518163ffffffff1660e01b8152600401600060405180830381600087803b158015620019d957600080fd5b505af1158015620019ee573d6000803e3d6000fd5b50506003546040516370a0823160e01b81523060048201526001600160a01b0390911692506370a082319150602401602060405180830381600087803b15801562001a3857600080fd5b505af115801562001a4d573d6000803e3d6000fd5b505050506040513d601f19601f8201168201806040525081019062001a73919062002f79565b600580546000908152600e602090815260408083209490945591548082529083902054835191825291810184905291820184905260608201527ff023808f96f6a68bd22b07b8d9091f94ea9280d1ebbb9631e0dda9d3689fd1e19060800160405180910390a160019250505090565b6000600554851062001b425760405162461bcd60e51b815260206004820152602260248201527f45786572636973652065706f6368206d75737420626520696e207468652070616044820152611cdd60f21b60648201526084016200070c565b600085815260096020526040902054841062001b725760405162461bcd60e51b81526004016200070c9062003105565b6000831162001b955760405162461bcd60e51b81526004016200070c90620030dd565b600085815260096020526040812080548690811062001bc457634e487b7160e01b600052603260045260246000fd5b90600052602060002001549050806000141562001bf55760405162461bcd60e51b81526004016200070c9062003168565b60015460009062001c0f906001600160a01b0316620011be565b905080821062001c6e5760405162461bcd60e51b815260206004820152602360248201527f537472696b6520697320686967686572207468616e2063757272656e7420707260448201526269636560e81b60648201526084016200070c565b6001600160a01b03841662001cbd5760405162461bcd60e51b8152602060048201526014602482015273496e76616c69642075736572206164647265737360601b60448201526064016200070c565b6000878152600a60209081526040808320858452909152908190205490516370a0823160e01b81526001600160a01b038681166004830152879216906370a082319060240160206040518083038186803b15801562001d1b57600080fd5b505afa15801562001d30573d6000803e3d6000fd5b505050506040513d601f19601f8201168201806040525081019062001d56919062002f79565b101562001db15760405162461bcd60e51b815260206004820152602260248201527f4f7074696f6e20746f6b656e2062616c616e6365206973206e6f7420656e6f756044820152610ced60f31b60648201526084016200070c565b6000818662001dc1858362003333565b62001dcd9190620032cc565b62001dd9919062003226565b6000898152600a602090815260408083208784529091529081902054905163079cc67960e41b81526001600160a01b038881166004830152602482018a90529293509116906379cc679090604401600060405180830381600087803b15801562001e4257600080fd5b505af115801562001e57573d6000803e3d6000fd5b5050506000898152601460205260408120805484935090919062001e7d908490620031d7565b909155505060015462001e9b906001600160a01b031686836200269b565b60408051898152602081018590526001600160a01b03871681830152606081018890526080810183905290517f9b441b5a8ffa775fe88e1c5546956bd4d905d9c01e493209c8922621b8b28ccb9181900360a00190a1506001979650505050505050565b600080546001600160a01b0316331462001f2d5760405162461bcd60e51b81526004016200070c9062003133565b6000600554600162001f409190620031d7565b60008181526008602052604090205490915060ff161562001fa45760405162461bcd60e51b815260206004820152601a60248201527f5661756c7420616c726561647920626f6f74737472617070656400000000000060448201526064016200070c565b600081815260096020526040902054620020125760405162461bcd60e51b815260206004820152602860248201527f537472696b65732068617665206e6f74206265656e2073657420666f72206e656044820152670f0e840cae0dec6d60c31b60648201526084016200070c565b60055415620022e15760055460009081526007602052604090205460ff166200207e5760405162461bcd60e51b815260206004820152601e60248201527f50726576696f75732065706f636820686173206e6f742065787069726564000060448201526064016200070c565b6003546040516370a0823160e01b81523060048201526001600160a01b0390911690632e1a7d4d9082906370a0823190602401602060405180830381600087803b158015620020cc57600080fd5b505af1158015620020e1573d6000803e3d6000fd5b505050506040513d601f19601f8201168201806040525081019062002107919062002f79565b6040518263ffffffff1660e01b81526004016200212691815260200190565b600060405180830381600087803b1580156200214157600080fd5b505af115801562002156573d6000803e3d6000fd5b5050600354604051631c4b774b60e01b8152600260048201526001600160a01b039091169250631c4b774b9150602401600060405180830381600087803b158015620021a157600080fd5b505af1158015620021b6573d6000803e3d6000fd5b50506001546040516370a0823160e01b81523060048201526001600160a01b0390911692506370a08231915060240160206040518083038186803b158015620021fe57600080fd5b505afa15801562002213573d6000803e3d6000fd5b505050506040513d601f19601f8201168201806040525081019062002239919062002f79565b6005546000908152600e6020526040908190209190915560025490516370a0823160e01b81523060048201526001600160a01b03909116906370a082319060240160206040518083038186803b1580156200229357600080fd5b505afa158015620022a8573d6000803e3d6000fd5b505050506040513d601f19601f82011682018060405250810190620022ce919062002f79565b6005546000908152600f60205260409020555b60005b600082815260096020526040902054811015620024aa5760008281526009602052604081208054839081106200232a57634e487b7160e01b600052603260045260246000fd5b9060005260206000200154905060006200236f604051806040016040528060088152602001671114160b50d0531360c21b8152506200236984620026f4565b62002822565b90506200239c81604051806040016040528060078152602001662d45504f43482d60c81b81525062002822565b9050620023ae816200236986620026f4565b905060008182604051620023c29062002d9d565b620023cf929190620030ab565b604051809103906000f080158015620023ec573d6000803e3d6000fd5b506000868152600a60209081526040808320878452825280832080546001600160a01b0319166001600160a01b038616908117909155898452600b8352818420888552909252918290205491516340c10f1960e01b815230600482015260248101929092529192506340c10f1990604401600060405180830381600087803b1580156200247857600080fd5b505af11580156200248d573d6000803e3d6000fd5b505050505050508080620024a19062003380565b915050620022e4565b5060008181526008602052604090819020805460ff191660011790556005829055517f648078b14acb0e3f5c3bf89d6216dfc5c1cd4d0fb646963ef9091179ba2808cb90620024fc9083815260200190565b60405180910390a1600191505090565b6000620011b78284620032cc565b6000620011b7828462003226565b600080546001600160a01b038381166001600160a01b0319831681178455604051919092169283917f8be0079c531659141344cd1fd0a4f28419497f9722a3daafe3b4186f6b6457e09190a35050565b6000620025936200258d620151808462003226565b62002850565b50909392505050565b6000620025b16200258d620151808462003226565b509392505050565b600062015180620025cc858585620029fc565b620025d89190620032cc565b949350505050565b600080620025f2620151808462003226565b9050600762002603826003620031d7565b6200260f91906200339e565b620011b7906001620031d7565b6000620025d86200258d620151808462003226565b60008162002641603c85620032cc565b6200264f610e1087620032cc565b62015180620026608b8b8b620029fc565b6200266c9190620032cc565b620026789190620031d7565b620026849190620031d7565b620026909190620031d7565b979650505050505050565b604080516001600160a01b038416602482015260448082018490528251808303909101815260649091019091526020810180516001600160e01b031663a9059cbb60e01b179052620026ef90849062002b6c565b505050565b606081620027195750506040805180820190915260018152600360fc1b602082015290565b8160005b8115620027495780620027308162003380565b9150620027419050600a8362003226565b91506200271d565b60008167ffffffffffffffff8111156200277357634e487b7160e01b600052604160045260246000fd5b6040519080825280601f01601f1916602001820160405280156200279e576020820181803683370190505b5090505b8415620025d857620027b660018362003333565b9150620027c5600a866200339e565b620027d2906030620031d7565b60f81b818381518110620027f657634e487b7160e01b600052603260045260246000fd5b60200101906001600160f81b031916908160001a9053506200281a600a8662003226565b9450620027a2565b606082826040516020016200283992919062003063565b604051602081830303815290604052905092915050565b60008080838162253d8c620028698362010bd962003190565b62002875919062003190565b9050600062023ab16200288a8360046200323d565b620028969190620031f2565b90506004620028a98262023ab16200323d565b620028b690600362003190565b620028c29190620031f2565b620028ce9083620032ee565b9150600062164b09620028e384600162003190565b620028f190610fa06200323d565b620028fd9190620031f2565b905060046200290f826105b56200323d565b6200291b9190620031f2565b620029279084620032ee565b6200293490601f62003190565b9250600061098f620029488560506200323d565b620029549190620031f2565b905060006050620029688361098f6200323d565b620029749190620031f2565b620029809086620032ee565b90506200298f600b83620031f2565b94506200299e85600c6200323d565b620029ab83600262003190565b620029b79190620032ee565b91508483620029c8603187620032ee565b620029d59060646200323d565b620029e1919062003190565b620029ed919062003190565b9a919950975095505050505050565b60006107b284101562002a0e57600080fd5b838383600062253d8c60046064600c62002a2a600e88620032ee565b62002a369190620031f2565b62002a448861132462003190565b62002a50919062003190565b62002a5c9190620031f2565b62002a699060036200323d565b62002a759190620031f2565b600c8062002a85600e88620032ee565b62002a919190620031f2565b62002a9e90600c6200323d565b62002aab600288620032ee565b62002ab79190620032ee565b62002ac59061016f6200323d565b62002ad19190620031f2565b6004600c62002ae2600e89620032ee565b62002aee9190620031f2565b62002afc896112c062003190565b62002b08919062003190565b62002b16906105b56200323d565b62002b229190620031f2565b62002b30617d4b87620032ee565b62002b3c919062003190565b62002b48919062003190565b62002b549190620032ee565b62002b609190620032ee565b98975050505050505050565b600062002bc3826040518060400160405280602081526020017f5361666545524332303a206c6f772d6c6576656c2063616c6c206661696c6564815250856001600160a01b031662002c459092919063ffffffff16565b805190915015620026ef578080602001905181019062002be4919062002f3e565b620026ef5760405162461bcd60e51b815260206004820152602a60248201527f5361666545524332303a204552433230206f7065726174696f6e20646964206e6044820152691bdd081cdd58d8d9595960b21b60648201526084016200070c565b6060620025d8848460008585843b62002ca15760405162461bcd60e51b815260206004820152601d60248201527f416464726573733a2063616c6c20746f206e6f6e2d636f6e747261637400000060448201526064016200070c565b600080866001600160a01b0316858760405162002cbf919062003045565b60006040518083038185875af1925050503d806000811462002cfe576040519150601f19603f3d011682016040523d82523d6000602084013e62002d03565b606091505b5091509150620026908282866060831562002d20575081620011b7565b82511562002d315782518084602001fd5b8160405162461bcd60e51b81526004016200070c919062003096565b82805482825590600052602060002090810192821562002d8b579160200282015b8281111562002d8b57825182559160200191906001019062002d6e565b5062002d9992915062002dab565b5090565b611e3880620033f883390190565b5b8082111562002d99576000815560010162002dac565b80356001600160a01b03811681146200134d57600080fd5b600082601f83011262002deb578081fd5b8135602067ffffffffffffffff8083111562002e0b5762002e0b620033e1565b8260051b604051601f19603f8301168101818110848211171562002e335762002e33620033e1565b6040528481528381019250868401828801850189101562002e52578687fd5b8692505b8583101562002e7657803584529284019260019290920191840162002e56565b50979650505050505050565b60006020828403121562002e94578081fd5b620011b78262002dc2565b60006020828403121562002eb1578081fd5b813567ffffffffffffffff81111562002ec8578182fd5b620025d88482850162002dda565b6000806040838503121562002ee9578081fd5b823567ffffffffffffffff8082111562002f01578283fd5b62002f0f8683870162002dda565b9350602085013591508082111562002f25578283fd5b5062002f348582860162002dda565b9150509250929050565b60006020828403121562002f50578081fd5b81518015158114620011b7578182fd5b60006020828403121562002f72578081fd5b5035919050565b60006020828403121562002f8b578081fd5b5051919050565b6000806040838503121562002fa5578182fd5b50508035926020909101359150565b6000806000806080858703121562002fca578182fd5b84359350602085013592506040850135915062002fea6060860162002dc2565b905092959194509250565b600081518084526200300f8160208601602086016200334d565b601f01601f19169290920160200192915050565b60609290921b6bffffffffffffffffffffffff19168252601482015260340190565b60008251620030598184602087016200334d565b9190910192915050565b60008351620030778184602088016200334d565b8351908301906200308d8183602088016200334d565b01949350505050565b602081526000620011b7602083018462002ff5565b604081526000620030c0604083018562002ff5565b8281036020840152620030d4818562002ff5565b95945050505050565b6020808252600e908201526d125b9d985b1a5908185b5bdd5b9d60921b604082015260600190565b602080825260149082015273092dcecc2d8d2c840e6e8e4d2d6ca40d2dcc8caf60631b604082015260600190565b6020808252818101527f4f776e61626c653a2063616c6c6572206973206e6f7420746865206f776e6572604082015260600190565b6020808252600e908201526d496e76616c696420737472696b6560901b604082015260600190565b600080821280156001600160ff1b0384900385131615620031b557620031b5620033b5565b600160ff1b8390038412811615620031d157620031d1620033b5565b50500190565b60008219821115620031ed57620031ed620033b5565b500190565b600082620032045762003204620033cb565b600160ff1b821460001984141615620032215762003221620033b5565b500590565b600082620032385762003238620033cb565b500490565b60006001600160ff1b0381841382841380821686840486111615620032665762003266620033b5565b600160ff1b84871282811687830589121615620032875762003287620033b5565b858712925087820587128484161615620032a557620032a5620033b5565b87850587128184161615620032be57620032be620033b5565b505050929093029392505050565b6000816000190483118215151615620032e957620032e9620033b5565b500290565b60008083128015600160ff1b8501841216156200330f576200330f620033b5565b6001600160ff1b03840183138116156200332d576200332d620033b5565b50500390565b600082821015620033485762003348620033b5565b500390565b60005b838110156200336a57818101518382015260200162003350565b838111156200337a576000848401525b50505050565b6000600019821415620033975762003397620033b5565b5060010190565b600082620033b057620033b0620033cb565b500690565b634e487b7160e01b600052601160045260246000fd5b634e487b7160e01b600052601260045260246000fd5b634e487b7160e01b600052604160045260246000fdfe60806040523480156200001157600080fd5b5060405162001e3838038062001e3883398101604081905262000034916200039b565b8151829082906200004d90600590602085019062000242565b5080516200006390600690602084019062000242565b50506007805460ff19169055506200007d600033620000dd565b620000a97f9f2df0fed2c77648de5860a4cc508cd0818c85b8b8a1ab4ceeef8d981c8956a633620000dd565b620000d57f65d7a28e3265b37a6474929f336521b332c1681b933f6cb9f3376673440d862a33620000dd565b505062000455565b620000f482826200012060201b620009e91760201c565b60008281526001602090815260409091206200011b918390620009f362000130821b17901c565b505050565b6200012c828262000150565b5050565b600062000147836001600160a01b038416620001f0565b90505b92915050565b6000828152602081815260408083206001600160a01b038516845290915290205460ff166200012c576000828152602081815260408083206001600160a01b03851684529091529020805460ff19166001179055620001ac3390565b6001600160a01b0316816001600160a01b0316837f2f8788117e7eff1d82e926ec794901d17c78024a50270940304540a733656f0d60405160405180910390a45050565b600081815260018301602052604081205462000239575081546001818101845560008481526020808220909301849055845484825282860190935260409020919091556200014a565b5060006200014a565b828054620002509062000402565b90600052602060002090601f016020900481019282620002745760008555620002bf565b82601f106200028f57805160ff1916838001178555620002bf565b82800160010185558215620002bf579182015b82811115620002bf578251825591602001919060010190620002a2565b50620002cd929150620002d1565b5090565b5b80821115620002cd5760008155600101620002d2565b600082601f830112620002f9578081fd5b81516001600160401b03808211156200031657620003166200043f565b604051601f8301601f19908116603f011681019082821181831017156200034157620003416200043f565b816040528381526020925086838588010111156200035d578485fd5b8491505b8382101562000380578582018301518183018401529082019062000361565b838211156200039157848385830101525b9695505050505050565b60008060408385031215620003ae578182fd5b82516001600160401b0380821115620003c5578384fd5b620003d386838701620002e8565b93506020850151915080821115620003e9578283fd5b50620003f885828601620002e8565b9150509250929050565b600181811c908216806200041757607f821691505b602082108114156200043957634e487b7160e01b600052602260045260246000fd5b50919050565b634e487b7160e01b600052604160045260246000fd5b6119d380620004656000396000f3fe608060405234801561001057600080fd5b50600436106101c45760003560e01c806370a08231116100f9578063a457c2d711610097578063d539139311610071578063d5391393146103af578063d547741f146103d6578063dd62ed3e146103e9578063e63ab1e91461042257600080fd5b8063a457c2d714610376578063a9059cbb14610389578063ca15c8731461039c57600080fd5b80639010d07c116100d35780639010d07c1461032857806391d148541461035357806395d89b4114610366578063a217fddf1461036e57600080fd5b806370a08231146102e457806379cc67901461030d5780638456cb591461032057600080fd5b8063313ce567116101665780633f4ba83a116101405780633f4ba83a146102ab57806340c10f19146102b357806342966c68146102c65780635c975abb146102d957600080fd5b8063313ce5671461027657806336568abe14610285578063395093511461029857600080fd5b806318160ddd116101a257806318160ddd1461021957806323b872dd1461022b578063248a9ca31461023e5780632f2ff15d1461026157600080fd5b806301ffc9a7146101c957806306fdde03146101f1578063095ea7b314610206575b600080fd5b6101dc6101d73660046117eb565b610449565b60405190151581526020015b60405180910390f35b6101f9610474565b6040516101e89190611888565b6101dc610214366004611767565b610506565b6004545b6040519081526020016101e8565b6101dc61023936600461172c565b61051c565b61021d61024c366004611790565b60009081526020819052604090206001015490565b61027461026f3660046117a8565b6105cb565b005b604051601281526020016101e8565b6102746102933660046117a8565b6105f2565b6101dc6102a6366004611767565b610614565b610274610650565b6102746102c1366004611767565b6106f6565b6102746102d4366004611790565b610799565b60075460ff166101dc565b61021d6102f23660046116e0565b6001600160a01b031660009081526002602052604090205490565b61027461031b366004611767565b6107a6565b610274610827565b61033b6103363660046117ca565b6108cb565b6040516001600160a01b0390911681526020016101e8565b6101dc6103613660046117a8565b6108ea565b6101f9610913565b61021d600081565b6101dc610384366004611767565b610922565b6101dc610397366004611767565b6109bb565b61021d6103aa366004611790565b6109c8565b61021d7f9f2df0fed2c77648de5860a4cc508cd0818c85b8b8a1ab4ceeef8d981c8956a681565b6102746103e43660046117a8565b6109df565b61021d6103f73660046116fa565b6001600160a01b03918216600090815260036020908152604080832093909416825291909152205490565b61021d7f65d7a28e3265b37a6474929f336521b332c1681b933f6cb9f3376673440d862a81565b60006001600160e01b03198216635a05180f60e01b148061046e575061046e82610a08565b92915050565b6060600580546104839061194c565b80601f01602080910402602001604051908101604052809291908181526020018280546104af9061194c565b80156104fc5780601f106104d1576101008083540402835291602001916104fc565b820191906000526020600020905b8154815290600101906020018083116104df57829003601f168201915b5050505050905090565b6000610513338484610a3d565b50600192915050565b6000610529848484610b61565b6001600160a01b0384166000908152600360209081526040808320338452909152902054828110156105b35760405162461bcd60e51b815260206004820152602860248201527f45524332303a207472616e7366657220616d6f756e74206578636565647320616044820152676c6c6f77616e636560c01b60648201526084015b60405180910390fd5b6105c08533858403610a3d565b506001949350505050565b6105d58282610d3c565b60008281526001602052604090206105ed90826109f3565b505050565b6105fc8282610d62565b60008281526001602052604090206105ed9082610ddc565b3360008181526003602090815260408083206001600160a01b0387168452909152812054909161051391859061064b9086906118bb565b610a3d565b61067a7f65d7a28e3265b37a6474929f336521b332c1681b933f6cb9f3376673440d862a336108ea565b6106ec5760405162461bcd60e51b815260206004820152603960248201527f45524332305072657365744d696e7465725061757365723a206d75737420686160448201527f76652070617573657220726f6c6520746f20756e70617573650000000000000060648201526084016105aa565b6106f4610df1565b565b6107207f9f2df0fed2c77648de5860a4cc508cd0818c85b8b8a1ab4ceeef8d981c8956a6336108ea565b61078b5760405162461bcd60e51b815260206004820152603660248201527f45524332305072657365744d696e7465725061757365723a206d7573742068616044820152751d99481b5a5b9d195c881c9bdb19481d1bc81b5a5b9d60521b60648201526084016105aa565b6107958282610e84565b5050565b6107a33382610f6f565b50565b60006107b283336103f7565b9050818110156108105760405162461bcd60e51b8152602060048201526024808201527f45524332303a206275726e20616d6f756e74206578636565647320616c6c6f77604482015263616e636560e01b60648201526084016105aa565b61081d8333848403610a3d565b6105ed8383610f6f565b6108517f65d7a28e3265b37a6474929f336521b332c1681b933f6cb9f3376673440d862a336108ea565b6108c35760405162461bcd60e51b815260206004820152603760248201527f45524332305072657365744d696e7465725061757365723a206d75737420686160448201527f76652070617573657220726f6c6520746f20706175736500000000000000000060648201526084016105aa565b6106f46110c9565b60008281526001602052604081206108e39083611144565b9392505050565b6000918252602082815260408084206001600160a01b0393909316845291905290205460ff1690565b6060600680546104839061194c565b3360009081526003602090815260408083206001600160a01b0386168452909152812054828110156109a45760405162461bcd60e51b815260206004820152602560248201527f45524332303a2064656372656173656420616c6c6f77616e63652062656c6f77604482015264207a65726f60d81b60648201526084016105aa565b6109b13385858403610a3d565b5060019392505050565b6000610513338484610b61565b600081815260016020526040812061046e90611150565b6105fc828261115a565b6107958282611180565b60006108e3836001600160a01b038416611204565b60006001600160e01b03198216637965db0b60e01b148061046e57506301ffc9a760e01b6001600160e01b031983161461046e565b6001600160a01b038316610a9f5760405162461bcd60e51b8152602060048201526024808201527f45524332303a20617070726f76652066726f6d20746865207a65726f206164646044820152637265737360e01b60648201526084016105aa565b6001600160a01b038216610b005760405162461bcd60e51b815260206004820152602260248201527f45524332303a20617070726f766520746f20746865207a65726f206164647265604482015261737360f01b60648201526084016105aa565b6001600160a01b0383811660008181526003602090815260408083209487168084529482529182902085905590518481527f8c5be1e5ebec7d5bd14f71427d1e84f3dd0314c0f7b2291e5b200ac8c7c3b925910160405180910390a3505050565b6001600160a01b038316610bc55760405162461bcd60e51b815260206004820152602560248201527f45524332303a207472616e736665722066726f6d20746865207a65726f206164604482015264647265737360d81b60648201526084016105aa565b6001600160a01b038216610c275760405162461bcd60e51b815260206004820152602360248201527f45524332303a207472616e7366657220746f20746865207a65726f206164647260448201526265737360e81b60648201526084016105aa565b610c32838383611253565b6001600160a01b03831660009081526002602052604090205481811015610caa5760405162461bcd60e51b815260206004820152602660248201527f45524332303a207472616e7366657220616d6f756e7420657863656564732062604482015265616c616e636560d01b60648201526084016105aa565b6001600160a01b03808516600090815260026020526040808220858503905591851681529081208054849290610ce19084906118bb565b92505081905550826001600160a01b0316846001600160a01b03167fddf252ad1be2c89b69c2b068fc378daa952ba7f163c4a11628f55a4df523b3ef84604051610d2d91815260200190565b60405180910390a35b50505050565b600082815260208190526040902060010154610d58813361125e565b6105ed8383611180565b6001600160a01b0381163314610dd25760405162461bcd60e51b815260206004820152602f60248201527f416363657373436f6e74726f6c3a2063616e206f6e6c792072656e6f756e636560448201526e103937b632b9903337b91039b2b63360891b60648201526084016105aa565b61079582826112c2565b60006108e3836001600160a01b038416611327565b60075460ff16610e3a5760405162461bcd60e51b815260206004820152601460248201527314185d5cd8589b194e881b9bdd081c185d5cd95960621b60448201526064016105aa565b6007805460ff191690557f5db9ee0a495bf2e6ff9c91a7834c1ba4fdd244a5e8aa4e537bd38aeae4b073aa335b6040516001600160a01b03909116815260200160405180910390a1565b6001600160a01b038216610eda5760405162461bcd60e51b815260206004820152601f60248201527f45524332303a206d696e7420746f20746865207a65726f20616464726573730060448201526064016105aa565b610ee660008383611253565b8060046000828254610ef891906118bb565b90915550506001600160a01b03821660009081526002602052604081208054839290610f259084906118bb565b90915550506040518181526001600160a01b038316906000907fddf252ad1be2c89b69c2b068fc378daa952ba7f163c4a11628f55a4df523b3ef9060200160405180910390a35050565b6001600160a01b038216610fcf5760405162461bcd60e51b815260206004820152602160248201527f45524332303a206275726e2066726f6d20746865207a65726f206164647265736044820152607360f81b60648201526084016105aa565b610fdb82600083611253565b6001600160a01b0382166000908152600260205260409020548181101561104f5760405162461bcd60e51b815260206004820152602260248201527f45524332303a206275726e20616d6f756e7420657863656564732062616c616e604482015261636560f01b60648201526084016105aa565b6001600160a01b038316600090815260026020526040812083830390556004805484929061107e9084906118f2565b90915550506040518281526000906001600160a01b038516907fddf252ad1be2c89b69c2b068fc378daa952ba7f163c4a11628f55a4df523b3ef9060200160405180910390a3505050565b60075460ff161561110f5760405162461bcd60e51b815260206004820152601060248201526f14185d5cd8589b194e881c185d5cd95960821b60448201526064016105aa565b6007805460ff191660011790557f62e78cea01bee320cd4e420270b5ea74000d11b0c9f74754ebdbfc544b05a258610e673390565b60006108e38383611444565b600061046e825490565b600082815260208190526040902060010154611176813361125e565b6105ed83836112c2565b61118a82826108ea565b610795576000828152602081815260408083206001600160a01b03851684529091529020805460ff191660011790556111c03390565b6001600160a01b0316816001600160a01b0316837f2f8788117e7eff1d82e926ec794901d17c78024a50270940304540a733656f0d60405160405180910390a45050565b600081815260018301602052604081205461124b5750815460018181018455600084815260208082209093018490558454848252828601909352604090209190915561046e565b50600061046e565b6105ed83838361147c565b61126882826108ea565b61079557611280816001600160a01b031660146114e2565b61128b8360206114e2565b60405160200161129c929190611813565b60408051601f198184030181529082905262461bcd60e51b82526105aa91600401611888565b6112cc82826108ea565b15610795576000828152602081815260408083206001600160a01b0385168085529252808320805460ff1916905551339285917ff6391f5c32d9c69d2a47ea670b442974b53935d1edc7fd64eb21e047a839171b9190a45050565b6000818152600183016020526040812054801561143a57600061134b6001836118f2565b855490915060009061135f906001906118f2565b90508181146113e057600086600001828154811061138d57634e487b7160e01b600052603260045260246000fd5b90600052602060002001549050808760000184815481106113be57634e487b7160e01b600052603260045260246000fd5b6000918252602080832090910192909255918252600188019052604090208390555b85548690806113ff57634e487b7160e01b600052603160045260246000fd5b60019003818190600052602060002001600090559055856001016000868152602001908152602001600020600090556001935050505061046e565b600091505061046e565b600082600001828154811061146957634e487b7160e01b600052603260045260246000fd5b9060005260206000200154905092915050565b60075460ff16156105ed5760405162461bcd60e51b815260206004820152602a60248201527f45524332305061757361626c653a20746f6b656e207472616e736665722077686044820152691a5b19481c185d5cd95960b21b60648201526084016105aa565b606060006114f18360026118d3565b6114fc9060026118bb565b67ffffffffffffffff81111561152257634e487b7160e01b600052604160045260246000fd5b6040519080825280601f01601f19166020018201604052801561154c576020820181803683370190505b509050600360fc1b8160008151811061157557634e487b7160e01b600052603260045260246000fd5b60200101906001600160f81b031916908160001a905350600f60fb1b816001815181106115b257634e487b7160e01b600052603260045260246000fd5b60200101906001600160f81b031916908160001a90535060006115d68460026118d3565b6115e19060016118bb565b90505b6001811115611675576f181899199a1a9b1b9c1cb0b131b232b360811b85600f166010811061162357634e487b7160e01b600052603260045260246000fd5b1a60f81b82828151811061164757634e487b7160e01b600052603260045260246000fd5b60200101906001600160f81b031916908160001a90535060049490941c9361166e81611935565b90506115e4565b5083156108e35760405162461bcd60e51b815260206004820181905260248201527f537472696e67733a20686578206c656e67746820696e73756666696369656e7460448201526064016105aa565b80356001600160a01b03811681146116db57600080fd5b919050565b6000602082840312156116f1578081fd5b6108e3826116c4565b6000806040838503121561170c578081fd5b611715836116c4565b9150611723602084016116c4565b90509250929050565b600080600060608486031215611740578081fd5b611749846116c4565b9250611757602085016116c4565b9150604084013590509250925092565b60008060408385031215611779578182fd5b611782836116c4565b946020939093013593505050565b6000602082840312156117a1578081fd5b5035919050565b600080604083850312156117ba578182fd5b82359150611723602084016116c4565b600080604083850312156117dc578182fd5b50508035926020909101359150565b6000602082840312156117fc578081fd5b81356001600160e01b0319811681146108e3578182fd5b7f416363657373436f6e74726f6c3a206163636f756e742000000000000000000081526000835161184b816017850160208801611909565b7001034b99036b4b9b9b4b733903937b6329607d1b601791840191820152835161187c816028840160208801611909565b01602801949350505050565b60208152600082518060208401526118a7816040850160208701611909565b601f01601f19169190910160400192915050565b600082198211156118ce576118ce611987565b500190565b60008160001904831182151516156118ed576118ed611987565b500290565b60008282101561190457611904611987565b500390565b60005b8381101561192457818101518382015260200161190c565b83811115610d365750506000910152565b60008161194457611944611987565b506000190190565b600181811c9082168061196057607f821691505b6020821081141561198157634e487b7160e01b600052602260045260246000fd5b50919050565b634e487b7160e01b600052601160045260246000fdfea2646970667358221220147fe28be26433543ce28d61dde136cec5bd4da345358d68c16edab533726fd964736f6c63430008040033a2646970667358221220647f3d14a008941324521d1a84ba5968bbc493dde856aeb1b175e0bb953ed70a64736f6c63430008040033",
  "devdoc": {
    "kind": "dev",
    "methods": {
      "bootstrap()": {
        "returns": {
          "_0": "Whether bootstrap was successful"
        }
      },
      "compound()": {
        "returns": {
          "_0": "Whether compound was successful"
        }
      },
      "deposit(uint256,uint256)": {
        "params": {
          "amount": "Amout of DPX to deposit",
          "strikeIndex": "Index of strike"
        },
        "returns": {
          "_0": "Whether deposit was successful"
        }
      },
      "depositMultiple(uint256[],uint256[])": {
        "params": {
          "amounts": "Amount of DPX to deposit into each strike index",
          "strikeIndices": "Indices of strikes to deposit into"
        },
        "returns": {
          "_0": "Whether deposits went through successfully"
        }
      },
      "exercise(uint256,uint256,uint256,address)": {
        "params": {
          "amount": "Amount of calls to exercise",
          "exerciseEpoch": "Target epoch",
          "strikeIndex": "Strike index for current epoch",
          "user": "Address of the user"
        },
        "returns": {
          "_0": "Whether vault was exercised"
        }
      },
      "expireEpoch()": {
        "returns": {
          "_0": "Whether expire was successful"
        }
      },
      "getEpochTimes(uint256)": {
        "params": {
          "epoch": "Target epoch"
        }
      },
      "getMonthlyExpiryFromTimestamp(uint256)": {
        "params": {
          "timestamp": "Timestamp from which the monthly expiry is to be calculated"
        },
        "returns": {
          "_0": "The monthly expiry"
        }
      },
      "owner()": {
        "details": "Returns the address of the current owner."
      },
      "purchase(uint256,uint256)": {
        "params": {
          "amount": "Amount of calls to purchase",
          "strikeIndex": "Strike index for current epoch"
        },
        "returns": {
          "_0": "Whether purchase was successful"
        }
      },
      "renounceOwnership()": {
        "details": "Leaves the contract without owner. It will not be possible to call `onlyOwner` functions anymore. Can only be called by the current owner. NOTE: Renouncing ownership will leave the contract without an owner, thereby removing any functionality that is only available to the owner."
      },
      "setStrikes(uint256[])": {
        "params": {
          "strikes": "Strikes to set for next epoch"
        },
        "returns": {
          "_0": "Whether strikes were set"
        }
      },
      "transferOwnership(address)": {
        "details": "Transfers ownership of the contract to a new account (`newOwner`). Can only be called by the current owner."
      },
      "withdrawForStrike(uint256,uint256)": {
        "params": {
          "strikeIndex": "Index of strike",
          "withdrawEpoch": "Epoch to withdraw from"
        },
        "returns": {
          "_0": "Whether withdraw was successful"
        }
      }
    },
    "stateVariables": {
      "epochStartTimes": {
        "details": "epoch => the epoch start time"
      },
      "isEpochExpired": {
        "details": "epoch => whether the epoch is expired"
      },
      "isVaultReady": {
        "details": "epoch => whether the vault is ready (boostrapped)"
      },
      "priceOracleAggregator": {
        "details": "getPriceInUSD(address _token)"
      }
    },
    "version": 1
  },
  "userdoc": {
    "kind": "user",
    "methods": {
      "bootstrap()": {
        "notice": "Bootstraps a new epoch and mints option tokens equivalent to user deposits for the epoch"
      },
      "compound()": {
        "notice": "Allows anyone to call compound()"
      },
      "deposit(uint256,uint256)": {
        "notice": "Deposits dpx into vaults to mint options in the next epoch for selected strikes"
      },
      "depositMultiple(uint256[],uint256[])": {
        "notice": "Deposit DPX multiple times"
      },
      "exercise(uint256,uint256,uint256,address)": {
        "notice": "Exercise calculates the PnL for the user. Withdraw the PnL in DPX from the SSF and transfer it to the user. Will also the burn the doTokens from the user."
      },
      "expireEpoch()": {
        "notice": "Sets the current epoch as expired."
      },
      "getEpochTimes(uint256)": {
        "notice": "Returns start and end times for an epoch"
      },
      "getMonthlyExpiryFromTimestamp(uint256)": {
        "notice": "Calculates the monthly expiry from a solidity date"
      },
      "isEpochExpired(uint256)": {
        "notice": "Is epoch expired"
      },
      "isVaultReady(uint256)": {
        "notice": "Is vault ready for next epoch"
      },
      "purchase(uint256,uint256)": {
        "notice": "Purchases calls for the current epoch"
      },
      "setStrikes(uint256[])": {
        "notice": "Sets strikes for next epoch"
      },
      "withdrawForStrike(uint256,uint256)": {
        "notice": "Withdraws balances for a strike in a completed epoch"
      }
    },
    "version": 1
  },
  "storageLayout": {
    "storage": [
      {
        "astId": 565,
        "contract": "contracts/Vault.sol:Vault",
        "label": "_owner",
        "offset": 0,
        "slot": "0",
        "type": "t_address"
      },
      {
        "astId": 3051,
        "contract": "contracts/Vault.sol:Vault",
        "label": "dpx",
        "offset": 0,
        "slot": "1",
        "type": "t_contract(IERC20)8221"
      },
      {
        "astId": 3054,
        "contract": "contracts/Vault.sol:Vault",
        "label": "rdpx",
        "offset": 0,
        "slot": "2",
        "type": "t_contract(IERC20)8221"
      },
      {
        "astId": 3057,
        "contract": "contracts/Vault.sol:Vault",
        "label": "stakingRewards",
        "offset": 0,
        "slot": "3",
        "type": "t_contract(IStakingRewards)8323"
      },
      {
        "astId": 3060,
        "contract": "contracts/Vault.sol:Vault",
        "label": "optionPricing",
        "offset": 0,
        "slot": "4",
        "type": "t_contract(IOptionPricing)8235"
      },
      {
        "astId": 3062,
        "contract": "contracts/Vault.sol:Vault",
        "label": "currentEpoch",
        "offset": 0,
        "slot": "5",
        "type": "t_uint256"
      },
      {
        "astId": 3067,
        "contract": "contracts/Vault.sol:Vault",
        "label": "epochStartTimes",
        "offset": 0,
        "slot": "6",
        "type": "t_mapping(t_uint256,t_uint256)"
      },
      {
        "astId": 3072,
        "contract": "contracts/Vault.sol:Vault",
        "label": "isEpochExpired",
        "offset": 0,
        "slot": "7",
        "type": "t_mapping(t_uint256,t_bool)"
      },
      {
        "astId": 3077,
        "contract": "contracts/Vault.sol:Vault",
        "label": "isVaultReady",
        "offset": 0,
        "slot": "8",
        "type": "t_mapping(t_uint256,t_bool)"
      },
      {
        "astId": 3082,
        "contract": "contracts/Vault.sol:Vault",
        "label": "epochStrikes",
        "offset": 0,
        "slot": "9",
        "type": "t_mapping(t_uint256,t_array(t_uint256)dyn_storage)"
      },
      {
        "astId": 3088,
        "contract": "contracts/Vault.sol:Vault",
        "label": "epochStrikeTokens",
        "offset": 0,
        "slot": "10",
        "type": "t_mapping(t_uint256,t_mapping(t_uint256,t_address))"
      },
      {
        "astId": 3094,
        "contract": "contracts/Vault.sol:Vault",
        "label": "totalEpochStrikeDeposits",
        "offset": 0,
        "slot": "11",
        "type": "t_mapping(t_uint256,t_mapping(t_uint256,t_uint256))"
      },
      {
        "astId": 3098,
        "contract": "contracts/Vault.sol:Vault",
        "label": "totalEpochDeposits",
        "offset": 0,
        "slot": "12",
        "type": "t_mapping(t_uint256,t_uint256)"
      },
      {
        "astId": 3104,
        "contract": "contracts/Vault.sol:Vault",
        "label": "userEpochDeposits",
        "offset": 0,
        "slot": "13",
        "type": "t_mapping(t_uint256,t_mapping(t_bytes32,t_uint256))"
      },
      {
        "astId": 3108,
        "contract": "contracts/Vault.sol:Vault",
        "label": "totalEpochDpxBalance",
        "offset": 0,
        "slot": "14",
        "type": "t_mapping(t_uint256,t_uint256)"
      },
      {
        "astId": 3112,
        "contract": "contracts/Vault.sol:Vault",
        "label": "totalEpochRdpxBalance",
        "offset": 0,
        "slot": "15",
        "type": "t_mapping(t_uint256,t_uint256)"
      },
      {
        "astId": 3118,
        "contract": "contracts/Vault.sol:Vault",
        "label": "totalEpochCallsPurchased",
        "offset": 0,
        "slot": "16",
        "type": "t_mapping(t_uint256,t_mapping(t_uint256,t_uint256))"
      },
      {
        "astId": 3124,
        "contract": "contracts/Vault.sol:Vault",
        "label": "userEpochCallsPurchased",
        "offset": 0,
        "slot": "17",
        "type": "t_mapping(t_uint256,t_mapping(t_bytes32,t_uint256))"
      },
      {
        "astId": 3130,
        "contract": "contracts/Vault.sol:Vault",
        "label": "totalEpochPremium",
        "offset": 0,
        "slot": "18",
        "type": "t_mapping(t_uint256,t_mapping(t_uint256,t_uint256))"
      },
      {
        "astId": 3136,
        "contract": "contracts/Vault.sol:Vault",
        "label": "userEpochPremium",
        "offset": 0,
        "slot": "19",
        "type": "t_mapping(t_uint256,t_mapping(t_bytes32,t_uint256))"
      },
      {
        "astId": 3140,
        "contract": "contracts/Vault.sol:Vault",
        "label": "totalTokenVaultExercises",
        "offset": 0,
        "slot": "20",
        "type": "t_mapping(t_uint256,t_uint256)"
      },
      {
        "astId": 3144,
        "contract": "contracts/Vault.sol:Vault",
        "label": "priceOracleAggregator",
        "offset": 0,
        "slot": "21",
        "type": "t_contract(IPriceOracleAggregator)8288"
      }
    ],
    "types": {
      "t_address": {
        "encoding": "inplace",
        "label": "address",
        "numberOfBytes": "20"
      },
      "t_array(t_uint256)dyn_storage": {
        "base": "t_uint256",
        "encoding": "dynamic_array",
        "label": "uint256[]",
        "numberOfBytes": "32"
      },
      "t_bool": {
        "encoding": "inplace",
        "label": "bool",
        "numberOfBytes": "1"
      },
      "t_bytes32": {
        "encoding": "inplace",
        "label": "bytes32",
        "numberOfBytes": "32"
      },
      "t_contract(IERC20)8221": {
        "encoding": "inplace",
        "label": "contract IERC20",
        "numberOfBytes": "20"
      },
      "t_contract(IOptionPricing)8235": {
        "encoding": "inplace",
        "label": "contract IOptionPricing",
        "numberOfBytes": "20"
      },
      "t_contract(IPriceOracleAggregator)8288": {
        "encoding": "inplace",
        "label": "contract IPriceOracleAggregator",
        "numberOfBytes": "20"
      },
      "t_contract(IStakingRewards)8323": {
        "encoding": "inplace",
        "label": "contract IStakingRewards",
        "numberOfBytes": "20"
      },
      "t_mapping(t_bytes32,t_uint256)": {
        "encoding": "mapping",
        "key": "t_bytes32",
        "label": "mapping(bytes32 => uint256)",
        "numberOfBytes": "32",
        "value": "t_uint256"
      },
      "t_mapping(t_uint256,t_address)": {
        "encoding": "mapping",
        "key": "t_uint256",
        "label": "mapping(uint256 => address)",
        "numberOfBytes": "32",
        "value": "t_address"
      },
      "t_mapping(t_uint256,t_array(t_uint256)dyn_storage)": {
        "encoding": "mapping",
        "key": "t_uint256",
        "label": "mapping(uint256 => uint256[])",
        "numberOfBytes": "32",
        "value": "t_array(t_uint256)dyn_storage"
      },
      "t_mapping(t_uint256,t_bool)": {
        "encoding": "mapping",
        "key": "t_uint256",
        "label": "mapping(uint256 => bool)",
        "numberOfBytes": "32",
        "value": "t_bool"
      },
      "t_mapping(t_uint256,t_mapping(t_bytes32,t_uint256))": {
        "encoding": "mapping",
        "key": "t_uint256",
        "label": "mapping(uint256 => mapping(bytes32 => uint256))",
        "numberOfBytes": "32",
        "value": "t_mapping(t_bytes32,t_uint256)"
      },
      "t_mapping(t_uint256,t_mapping(t_uint256,t_address))": {
        "encoding": "mapping",
        "key": "t_uint256",
        "label": "mapping(uint256 => mapping(uint256 => address))",
        "numberOfBytes": "32",
        "value": "t_mapping(t_uint256,t_address)"
      },
      "t_mapping(t_uint256,t_mapping(t_uint256,t_uint256))": {
        "encoding": "mapping",
        "key": "t_uint256",
        "label": "mapping(uint256 => mapping(uint256 => uint256))",
        "numberOfBytes": "32",
        "value": "t_mapping(t_uint256,t_uint256)"
      },
      "t_mapping(t_uint256,t_uint256)": {
        "encoding": "mapping",
        "key": "t_uint256",
        "label": "mapping(uint256 => uint256)",
        "numberOfBytes": "32",
        "value": "t_uint256"
      },
      "t_uint256": {
        "encoding": "inplace",
        "label": "uint256",
        "numberOfBytes": "32"
      }
    }
  }
}